:03000000024EFAB3
:0C4EFA00787FE4F6D8FD7581E3024F419B
:06526600017000016F0061
:105C5100C2AF125D1112576B125C6B125C16125CB3
:0A5C6100D9125AAE125D31D2AF2203
:105D110053B29F43B2087F057E00125B7143B20408
:015D2100225F
:10576B0075B6FF759CFF759DFF759EFF75E1EFE4A8
:10577B00F5E9F580F5EF75E2FFF5EAF59075E3FFD6
:10578B00F5EBF5A075E4FFF5ECF5B075E5F875ED07
:10579B0018F5C053863F43864075E13CF5E9F5802B
:0457AB0053863F22C0
:105C6B00C2CAC2CFE4F5C8F5C975CA2075CBD175C8
:085C7B00CC2075CDD1D2CA2264
:105C160053863F438640C28AC28FC28CC28DC288D9
:0E5C2600D289E4F58C758D80D28A53863F2298
:0D5D310075A86075A910E4F5BA75BB1022C5
:03002B0002534538
:0D534500C0E0C083C082C0D075D000C0079A
:10535200AF8653863FC2AFC2CF0570E570C39408D3
:105362004005757000D228303A292039093083046B
:10537200C2838002D283C390004DE094E890004C37
:10538200E094035017A3E004F0701190004CE00485
:10539200F0800990004CE4F0A3F0C283D2AF8F8674
:0B53A200D007D0D0D082D083D0E03202
:03005B000200366A
:07003600C0D075D000C00727
:10003D00AF8653863FC2AF53863F438640C28F5330
:09004D00863F7520FFD2AF8F86BB
:05005600D007D0D032FC
:025D7600000229
:09526C00011D00011C00011E00DF
:030033000247E69B
:1047E600C0E0C0F0C0D075D000C000C001C003C09A
:0747F60004C005C006C00766
:1047FD00A98653863FC2AF5393BF302B4DAF97EF72
:10480D0075F004A4FFAB96E5F0FCEF4B78A226F60D
:10481D0018EC36F6789E06E6C39410406076007864
:10482D00A1E6FE08E6FFEEC4F854F0C868FEEFC43A
:10483D00540F48FF789FEEF608EFF60876000876DD
:10484D000094EEEE9402C2398033AF97EF75F00409
:10485D00A4FFAD96E5F0FCEF4DFDAF1C051CEF255B
:10486D00E02498F8A60408A605E51CC39403400DA2
:10487D00751C00D22B7595047593858003439301A8
:04488D00D2AF898697
:10489100D007D006D005D004D003D001D000D0D0AD
:0548A100D0F0D0E03270
:105CD9004393807592047594EFE4F51D125BF743C5
:035CE90093012202
:095BF700E51D905D7693F51FFF9A
:105C0000E4F5955393F1EF4293EF7003759501BF5F
:065C10000203759502225B
:075D5F0074722FF8E6FF2229
:0C5D3E00EF25E02494F8E6FE08E6FF22C2
:044C1C008E2F8F3018
:104C2000E4FF6330FF632F03ED1460470460030269
:104C30004CB5C3E530941FE52F9400401AE530943D
:104C4000B4E52F940350107BFF7A2779FC852F352C
:104C50008530367DB5803FC3E530941FE52F940045
:104C60005002E4FFC3E53094B4E52F940340467F3F
:104C7000B58042C3E530941BE52F9400401DE5301C
:104C80009410E52F940350137BFF7A297968852FC0
:104C9000358530367D79124DDE801AC3E530941BA0
:104CA000E52F94005002E4FFC3E5309410E52F9403
:054CB0000340027F79C2
:014CB50022DC
:084723008B2F8A3089318D32A1
:10472B00753501E4F533E535640160030247E5E5D2
:10473B003214FFE533C39F40030247E5E4F535F53B
:10474B0034C3E532953314FFE534C39F400302476E
:10475B00E0E5342401FFE433FEEF25E0FFEE33AB5D
:10476B002FAA30A9318F82F58312352BFFAEF0754E
:10477B00F002E534A4F58285F08312352BFDACF005
:10478B00D39FEC9E404A8C368D37E5342401FFE4F1
:10479B0033FEEF25E0FFEE338F82F58312352BFFCF
:1047AB00AEF075F002E534A4F58285F083EE8FF060
:1047BB00123563E5342401FFE433FEEF25E0FFEE11
:1047CB00338F82F583E5368537F012356375350106
:0A47DB00053402474C053302473154
:0147E50022B1
:064DDE008B318A3289339B
:104DE400E4F537ED807AE5382537FFE433C313EF74
:104DF40013FDAB31AA32A93375F002A4F58285F014
:104E04008312352BFFC3E5369FE53595F04027ED3A
:104E14006538601FED2401FFE433FEEF25E0FFEE6B
:104E2400338F82F58312352BFFC3E5369FE5359525
:104E3400F05003AF0522E53765386029AB31AA325B
:104E4400A93375F002EDA4F58285F08312352BFFAA
:104E5400D3E5369FE53595F0ED400504F5378086BA
:074E640014F53880817F0086
:014E6B002224
:1040FA00202B030241F0E4F593C22BFB7A00799856
:10410A007D03124723789AE6FE08E6FFE51DC454AC
:10411A00F02474F8E51E25E028F8A60608A6070587
:10412A001DE51DC3940250030241E0E4F51D051E7E
:10413A00E51E640860030241E0151EF52CE4F52D26
:10414A00F52EF52BE52CC454F02474F8E52B25E064
:10415A0028F8E6FE08E6252EF52EEE352DF52D0576
:10416A002BE52BB408DEE52EAE2D7803CEC313CE95
:10417A0013D8F9F52E8E2DE52C25E02494F8A62DDA
:10418A0008A62EAD2CAF2EAE2D124C1C7472252C07
:10419A00F8A607052CE52CC3940240A1E4F52CE40B
:1041AA00F52BE52CC454F02476F8E52B25E028F805
:1041BA00E6FE08E6FFE52CC454F02474F8E52B2546
:1041CA00E028F8A60608A607052BE52BB407D305B1
:1041DA002CE52CB402C9125BF74393807F057E005D
:0641EA00125B714393011A
:0141F00022AC
:105A57000000000A0019003F007D00FA2400220020
:105A67003333333333333333333300343434003461
:0C5A770034002222001111000024240041
:0E52750001630001620002640000026000009C
:0F5D22008E648F658E608F61E4F5637562012278
:10500800E563D394004003156322E562D39400401E
:105018006F53863F438640C28253863F1562E562DE
:10502800705E85658285648393FF700122BFFF0DE2
:10503800856064856165E4F5637562012253070F35
:10504800EF25E02457F582E4345AF583740193F58B
:10505800630565E565AE647002056414F5828E83A8
:10506800E493C4540F25E02457F582E4345AF583B9
:10507800740193F56253863F438640D28253863F3C
:015088002205
:065D6D00EF426E426D22C0
:075D6600EFF4526E526D22B2
:04002E00EF426D220E
:104CB600E490004EF0A3F0302909302E04C22E8075
:104CC60002D22E302E05856D6C8007E56EF4556D8B
:104CD600F56C20390320500C53863F438640C2832F
:104CE60053863F22E56C30E40790004EE04410F016
:104CF600E56C30E00790004EE04401F0E56C30E3EF
:104D06000790004EE04408F0E56C30E20790004E54
:104D1600E04404F0E56C30E10790004EE04402F018
:104D2600E56C30E50A53863F438640D283800853BC
:104D3600863F438640C28353863F90004EE033331E
:064D46003354F8A3F02233
:10528300023E000002400000023C0000013900021F
:035293003A0000DE
:104AD000305015308427900052E004F0E0D3941455
:104AE0004020E4F0C250801A208412900052E0046A
:104AF000F0E0D39414400BE4F0D2508005E4900031
:104B000052F0E4F542F5431253AD30506690005038
:104B1000E0FF33333354F8FE900051E06E7054EFF1
:104B2000B40103434301900050E0B4020343430245
:104B3000900050E0FFB40303434304EFB404034385
:104B40004308EFB40503434310EFB4060343432087
:104B5000EFB40703434340EFB40803434380EFB48B
:104B60000903434201EFB40A03434202EFB40B03CB
:074B7000434204AE42AF43D3
:014B7700221B
:10510800124AD08E2B8F2CE52C653B7004E52B655D
:105118003A70440539E539D394644058853A408556
:105128003B41E54145407004C22A8002D22A053F2E
:10513800E53F7002053E302C38E4F539C22CE52CE9
:10514800452B6030302D2D85403C85413D30452430
:105158007E5A7F65025D22202A04D22D8002C22D4C
:10516800E4F540F541F53EF53FD22C852B3A852CE8
:045178003B753955F5
:01517C002210
:095D5500AF41AE40E4F540F54118
:015D5E002222
:0B5D4A00302D05C22D7F01227F0022BA
:1058E200A2AF9252C2AFEE5407F5F775A70178E363
:1058F200E6B4A51575F2E675F30575F40A75F509B2
:1059020075F606000000008003E4F5F3E478E3F6A0
:08591200F5A7F5F7A25292AFD0
:01591A00226A
:0A4D4C008E2D8F2E8B2F8A308931B7
:104D5600A2AF9252C2AFE52D5407F5F7E52EF5FB4B
:104D660075A70175FC5A78E3E6645A705B75F26EB6
:104D760075F30575F40A75F50975F6060000000069
:104D8600052EE52E7002052D7D01E52D5407F5F75C
:104D9600E52EF5FB75A701AB2FAA30A9318D8275DB
:104DA600830012340EF5FC75F26E75F30575F40A80
:104DB60075F50975F60600000000052EE52E700251
:104DC600052D0DBD29C48003E4F5F3E478E3F6F57B
:074DD600A7F5F7A25292AF0E
:014DDD0022B3
:045A83008E2C8F2DA9
:105A870075A701E4FF852D82852C83E4931234905A
:105A9700740129F9E43AFA052DE52D7002052C0F5A
:065AA700BF29E2E4F5A7AF
:015AAD0022D6
:104F8600EE24BAB674D6DEA4FEF6FC5E6E5ADAD805
:104F9600FA60D6F46CBCBEE0FEFC77245D6D2E6B29
:104FA6007B257F6FF8000000E8000000E0000000AD
:104FB60090209040D000FFFF800080208040C000FD
:104FC600FFFFD400D200F000FFFFC000C400C20003
:104FD600E000FFFF800281009000FFFFF00080806C
:104FE600800EA00080808010FFFFA00080808010CF
:104FF600FFFF80068100D000FFFF80018100C00016
:02500600FFFFAA
:0B529600025A0000025D0000015800F9
:105AAE0075AB3F75AD01E4F5AC43AB40FF74002F11
:105ABE00F582E43405F583E4F0742A2FF582E4349C
:095ACE0000F583E4F00FBF1CE4B5
:015AD70022AC
:105B0200E4FEEFD39400742A400D2EF582E43400B3
:105B1200F58374FFF0800A2EF582E43400F583E405
:055B2200F00EBE1CDDC9
:015B2700225B
:10563400E4900034F0A3F0305247EFC39409500FC4
:10564400EF904F8693900034F0904F86E4802DEFD6
:10565400C39416502CBF090C904F86E493900034E9
:10566400F0A3F022EF14FF125CC5EF540F904F86A5
:1056740093900034F0EFC4540F904F86939000350C
:01568400F035
:015685002202
:10591B0090002DE054E1F030522EEF24FE60121473
:10592B00601714601C2403701F90002DE0441EF0C0
:10593B002290002DE0440EF02290002DE04406F062
:09594B002290002DE04402F0223C
:1057F200900033E05480F090002EE054FBF03052E1
:105802002BEFD394004025EF940A5004AE07800B8F
:1058120090002EE04404F0EF24F6FE900033E0FF07
:0C582200EE904FA093FDEF4D900033F08E
:01582E002257
:064B7800C252AF32AE3163
:044B7E00AB07AA06D1
:104B820090003CE0540FF090003BE0540FF0900096
:104B92003AE0540FF0900039E0540FF0900038E002
:104BA200540FF0900037E0540FF030526CEB540F7A
:104BB200FFE0FEEF904F9693FD54F0FCEE4C900018
:104BC20037F0A3E0FEEDC454F0FFEE4FF0AF03EF79
:104BD200C4540FFFA3E0FEEF904F9693FD54F0FCF8
:104BE200EE4C900039F0A3E0FEEDC454F0FFEE4F1E
:104BF200F0EA540FFFA3E0FEEF904F9693FD54F0BE
:104C0200FCEE4C90003BF0A3E0FEEDC454F0FFEE4E
:094C12004FF090003AE04410F06C
:014C1B002276
:0443CC00AB07AA068B
:1043D00090003CE054F0F090003BE054F0F090008E
:1043E0003AE054F0F0900039E054F0F0900038E0FA
:1043F00054F0F0900037E054F0F0900036E054F0C4
:10440000F090002AE054F1F02052030244A8EB544B
:104410000FFFE0FEEF904F9693FD540EFCEE4C9094
:10442000002AF0900036E0FEEDC4540FFFEE4FF08E
:10443000AF03EFC4540FFF900038E0FEEF904F96AB
:1044400093FD540FFCEE4C900038F0900037E0FEE6
:10445000EDC4540FFFEE4FF0EA540FFF90003AE026
:10446000FEEF904F9693FD540FFCEE4C90003AF007
:10447000900039E0FEEDC4540FFFEE4FF0EAC45453
:104480000FFFD39400402190003CE0FEEF904F9648
:1044900093FD540FFCEE4C90003CF090003BE0FE8E
:0844A000EDC4540FFFEE4FF0D4
:0144A80022F1
:02558A008F315F
:10558C00E4900041F0900040E05401F0305245E5C9
:10559C0031D39400403EAF31125CC5EFFC540FFE8A
:1055AC00900040E0FDEE904F869354FEFEED4E9041
:1055BC000040F0ECC4540FFEA3E0FFEE904F869336
:1055CC0054FEFEEF4E900041F0E531C3946440046C
:0455DC00E04401F0B6
:0155E00022A8
:065686008B2E8A2F8930F3
:10568C00125C34305243AB2EAA2FA9301233F5B42E
:10569C00FF1290000112340EB4FF097FD01259543E
:1056AC007FAC8022AB2EAA2FA9301233F5FF125CEF
:1056BC00C5EF125954AB2EAA2FA930900001123409
:0956CC000EFF125CC5EF12598CAF
:0156D50022B2
:02598C00AD0765
:10598E0090003FE05401F090003EE05401FFF0ED36
:10599E00540F904F869354FE4F90003EF0EDC4543A
:1059AE000FFEA3E0FFEE904F869354FEFEEF4E9057
:0359BE00003FF0B7
:0159C10022C3
:02595400AD079D
:1059560090003DE05401F090002BE05401FFF0ED83
:10596600540F904F869354FE4F90002BF0EDC45485
:105976000FFE90003DE0FFEE904F869354FEFEEF43
:055986004E90003DF011
:01598B0022F9
:105C340090003FE05401F090003EE05401F09000E9
:0D5C44003DE05401F090002BE05401F022EF
:105B2800E4FF125B02E4F523F524F521F522304861
:105B3800047FE0800C3049047FE18005304C057F0C
:055B4800E31259542294
:10517D00AC075323F05321F090002DE04481F0EB68
:10518D0014600F14601214601C14603124047054E8
:10519D008033D218D2088004D219D209D21AD20A79
:1051AD0078DAA60422ECD394095004D2188002D2E6
:1051BD0019D21A78DAA604D21BD20B8024EC64160D
:1051CD006003BC170890002DE0547EF022ECD394C0
:1051DD00095004D2188002D219D21A78DAA604D254
:0551ED001B08A60522CD
:1055E100AC075323CF5321CF90002EE04401F0901C
:1055F1000033E04480F0ED14600914601824027057
:10560100318021ECD39400400AD21CD20CD21DD29D
:105611000D800C800FECD394004009D21CD21D7870
:10562100DCA6042290002EE054FEF0900033E054FA
:035631007FF022E5
:1048A6008E318F328C338D34A90390002AE04481F7
:1048B600F0548FF0900036E0540FF0E53614604067
:1048C60014606514700302495424036003024962AC
:1048D60090002AE0547EF0124B78C252AF34AE33C9
:1048E6001243CCE9D394004073B90107900036E037
:1048F6004440F0E964027064900036E04420F022FF
:1049060090002AE04440F0900036E04480F0B9017F
:1049160004E04440F0B90207900036E04420F0D2AB
:1049260052124B7AC252802D90002AE04420F09019
:104936000036E04410F0B90104E04440F0B9020743
:10494600900036E04420F0124B78D2528007D252C3
:0D495600124B7AD252AF34AE331243CC2252
:10359C00AC0753233F53213FE4F524F52290002C34
:1035AC00E04480F0900040E04401F090003FE05493
:1035BC00FEF090003EE054FEF090002BE054FEF044
:1035CC00ECD39400402DBC0102D220BC0202D221CB
:1035DC00BC0302D222BC0402D223BC0502D224BCFE
:1035EC008102D220BC8202D221BC8302D222BC84B2
:1035FC0002D223E536B40800400302373C90361063
:10360C00F828287302362802363F023657023682D3
:10361C000236C70236E202371402371EEC60030290
:10362C00373CF52490002CE0547FF0900040E0549F
:10363C00FEF022EDD39400400FD21ED22590003F15
:10364C00E04401F078E0A6050236DAEDD3940040B0
:10365C0012203D0FD21ED22590003FE04401F0789D
:10366C00E0A605D21FD226D227303D05C21702375D
:10367C0004D217023704ECD39400500302373CEC0D
:10368C0030E70543240F800343241FBC0102D210F2
:10369C00BC0202D211BC0302D212BC0402D213BC73
:1036AC000502D214BC8102D210BC8202D211BC839E
:1036BC0002D212EC64847078D21322D21ED20ED2B3
:1036CC0025D21590003FE04401F078E0A605D21F0A
:1036DC00D226D2278022EDD394004012203D0FD267
:1036EC001ED22590003FE04401F078E0A605D21FE1
:1036FC00D20FD226D216D22790003EE04401F09091
:10370C00002BE04401F08016D22678E176FF087693
:10371C00FF22D22578E0A605D227D217D226900018
:10372C000112340E78E1F690000212340E78E2F6B3
:01373C00226A
:105413008E318F328E5D8F5E8E5A8F5B900029EBBB
:10542300F0EF4E701A900032E05490F0900031E4A7
:10543300F0900030E05483F090002FE054FEF0C36E
:10544300ED9464EC9400500678D9760C801ED3ED6D
:1054530094E8EC9403400678D9767D800FEDAE0492
:105463007803CEC313CE13D8F978D9F678D9E614D6
:03547300F55F22C0
:10324B00E55B455A70030233F4055F78D9E6FFE579
:10325B005FC39F50030233F4E4F55FE55BFD24028B
:10326B00F55BE55AFC3400F55A8D828C83E493FCB4
:10327B00740193FD4C7005F55AF55B22BCFF0EBD36
:10328B00FF0B855D5A855E5BEF14F55F22ED9000B9
:10329B003230E006E04402F08004E054FDF0ED90A3
:1032AB00003230E106E04408F08004E054F7F0ED22
:1032BB0090003230E206E04420F08004E054DFF06E
:1032CB00ED90003230E306E04404F08004E054FB60
:1032DB00F0ED90003230E406E04440F08004E0541E
:1032EB00BFF0ED90003230E506E04401F08004E0E1
:1032FB0054FEF0ED90003130E60DE04401F090000B
:10330B002FE04401F0800BE054FEF090002FE054CE
:10331B00FEF0ED90003130E710E04420F0900030EB
:10332B00E04410F04420F0800EE054DFF0900030C9
:10333B00E054EFF054DFF0EC30E00C900031E0445F
:10334B0010F0900030800E900031E054EFF0ED90D3
:10335B00003030E709E04410F04420F08007E054DF
:10336B00EFF054DFF0EC90003130E10DE04440F031
:10337B00900030E04404F0800BE054BFF09000303C
:10338B00E054FBF0EC90003130E206E04480F0803A
:10339B0004E0547FF0EC90003130E306E04402F09F
:1033AB008004E054FDF0EC90003030E406E044087B
:1033BB00F08004E054F7F0EC90003130E506E04487
:1033CB0004F08004E054FBF0EC90003130E606E0B2
:1033DB004408F08004E054F7F0EC90003030E7053F
:0933EB00E04440F022E054BFF080
:0133F40022B6
:1044A900EF700D90002FE05401F0A3E0547DF0224D
:1044B900BF0105E4F5588019BF0213E559B40F117E
:1044C9000558E558D3940B40087558018003755871
:1044D900FF90002FE044DEF0A3E044A2F0A3E04403
:1044E90041F0E558B40C0040030245809044FCF8C3
:1044F90028287302452002453202453A02453F0207
:104509004544024549024551024559024561024562
:104519006902457102457990002FE05401F0A3E04A
:10452900545CF0A3E054BEF022900030E054DFF078
:104539002290003180159000308008900030802B47
:1045490090002FE0547FF02290002FE054BFF0221A
:1045590090002FE054EFF02290002FE054F7F02262
:1045690090002FE054FBF02290002FE054FDF02240
:07457900900031E054FEF058
:014580002218
:0242E7008F2E18
:1042E900E4FF125D5F8F2F7F01125D5F8F30E4FF66
:1042F900125B02E52EB4130040030243CB90430D39
:10430900F828287302434602435402435902435989
:10431900024359024359024359024359024359027C
:1043290043590243590243590243590243A20243E2
:10433900A80243AF0243B30243B70243BC7F23122F
:10434900598C7F011259547F1F80747F01025B02CF
:104359007F1F125D66E52EB402057F0812002EE567
:104369002EB403057F0412002EE52EB404057F0246
:1043790012002EE52EB405057F0112002EE52EB49C
:1043890007057F1012002EE52E14540FFC4304B0CC
:10439900AF0412598CAF048017D252AF2F8004D2C8
:1043A90052AF3002558A7FC180067FC280027FC327
:1043B900025954E4FF12598C7FFF1259547F3F125E
:0243C9005D662F
:0143CB0022CF
:022EAA008F2B6C
:102EAC00055CE55CC3943F4011E55C947E4003E413
:102EBC00F55C85232C85242D800CE5236521F52CD0
:102ECC00E5246522F52DE52C90002D30E006E0443C
:102EDC0040F08004E054BFF0E52C90002D30E1066A
:102EEC00E04420F08004E054DFF0E52C30E2087878
:102EFC00DAE6FFD2528004C252E4FF125634E52CBB
:102F0C0030E30878DBE6FFD2528004C252E4FF12B1
:102F1C00591BE52C90002E30E406E04402F08004AE
:102F2C00E054FDF0E52C30E50878DCE6FFD2528069
:102F3C0004C252E4FF1257F2E52C90002C30E60646
:102F4C00E04420F08004E054DFF0E52C90002C30BD
:102F5C00E706E04440F08004E054BFF0E52D90001B
:102F6C002C30E006E04401F08004E054FEF0E52D46
:102F7C0090002C30E106E04402F08004E054FDF0B7
:102F8C00E52D90002C30E206E04404F08004E0547F
:102F9C00FBF0E52D90002C30E306E04408F08004B3
:102FAC00E054F7F0E52D90002C30E406E04410F0EE
:102FBC008004E054EFF0E52D30E50878E0E6FFD230
:102FCC00528004C252E4FF12558AE52D7B0030E694
:102FDC00087A0079E1D25280067A007900C2521246
:102FEC005686E52D90003D30E706E04401F0800464
:102FFC00E054FEF090002EE0304505547FF0800345
:10300C004480F0900032E03046054410F0800354C8
:10301C00EFF0900032E03047054480F08003547F9D
:10302C00F012324B900029E0FF1244A9E52B24FB4F
:10303C00600E146012146014240770177F01800254
:10304C00E4FF125B02800C125B28800778B6E6FF67
:10305C001242E70559E559D3940F4026E4F559F58A
:10306C002C742A252CF582E43400F583E0FF7400DF
:10307C00252CF582E43405F583EFF0052CE52CB412
:02308C001CDF47
:01308E00221F
:1053AD0043ED0843ED10125BB6125B957FA91256C3
:1053BD00D6305105125BB6802412582F900050EF55
:1053CD00F0C2511200037F14125CB712582F9000D7
:1053DD0051EFF0D2511200037F14125CB77F6412AB
:1053ED005CB7125BB6125B957FA81256D63051038F
:1053FD00025BB690004EE0FF1256D6D2511200035A
:06540D007F14125CB722BF
:105B950043E508D2C37F0F125CB7125CB043E5083A
:105BA500C2C37F0F125CB743E510C2C47F0F025C0E
:015BB500B738
:105BB60043E508C2C37F0F125CB7125CB043E50829
:105BC600D2C37F0F125CB743E510C2C47F0F025CDD
:015BD600B717
:100003007F0F125CB720510543E508C2C330510589
:1000130043E508D2C37F0F125CB7125CB043E5100F
:07002300C2C47F0F025CB7AD
:1056D6008F2EE4F52DE52E30E70743E508D2C3808B
:1056E6000543E508C2C37F0F125CB7125CB043E501
:1056F60010C2C4E52E25E0F52E052DE52DC3940830
:1057060040D353E5F77F0F125CB7125CB030C30489
:10571600D2518002C25143E510C2C47F0A025CB76F
:10582F00E4F52E53E5F7F52D43E510C2C47F0F12B3
:10583F005CB7125CB0E52E25E0F52E30C303432E86
:10584F00017F0F125CB7052DE52DC3940840D94396
:0B585F00E510C2C47F0A125CB7AF2E38
:01586A00221B
:075CB00043E510D2C47F0F91
:0D5CB700E4F52FE52FC39F5004052F80F664
:015CC40022BD
:0352A10001710098
:10572600125C51124581E4F5B13028FAC2280571A0
:10573600E571C3947D4005E4F571D2291240FAAFB4
:1057460012122EAA124CB612510812586B12500899
:10575600123F031258A71241F1125A28124E6CC278
:0557660033C22980C1DF
:103CC40000050005000500030005000500050005CA
:103CD4000030010000050001000500300130002023
:103CE4000008004000400030004502000800003099
:103CF400003000200300090001300100040003002B
:103D040009000200040024000200090001005064BC
:103D140064641E5028648CA09128646464A0A0A0EC
:103D24002864A0012502500375050006500800010F
:103D340000020003000425042504250125020003D4
:103D4400750500065006500100020003000400053A
:103D54000005000100020003000450045004500058
:103D6400500100015002000200020002200440063B
:103D740060088011001320020004000600080010EF
:103D84000012000180036005400720090010800232
:103D9400400480072009601200144005001000153B
:103DA400002000200020000260052007801040133E
:103DB4000013000280056008401120140014000361
:103DC4000006000900120012001200052010401520
:103DD400602080208020800360072010801440141D
:0F3DE4004014400190038005700760076007607E
:10586B00E512B408005034905879F8282873025880
:10587B00910258A602589402589702589A02589DC2
:10588B000258A00258A3025BD702005E02148002EA
:0C589B00373D0259F6025AD8123B862213
:105BD70030291C900048E004F0E0D3940140109075
:105BE7000027E0B4A504C2458002D24512553022F1
:10005E00125D558E2B8F2CD3E52C9400E52B94003E
:10006E00401578A9E67007F52BF52C121E3C7F2063
:10007E0012002E78A9763CE52C20E70302023212FC
:10008E005D4AEF700302021878B7E614B40D004013
:10009E00030202189000B075F003A4C58325F0C5C5
:1000AE0083730200D70200ED0200F602011802016E
:1000BE00180201210201F402017B0201BB0200E7DA
:1000CE000200ED020137020208E519D3940040093F
:1000DE0078B7760A7F0A0202151254760202187851
:1000EE00B776017F01020215E5096406600BE5098A
:1000FE0064086005E509B4090678B77601800478CE
:10010E00B7760278B7E6FF02021578B776037F035B
:10011E00020215E509B408057513018003E4F51311
:10012E0078B776057F05020215E509D394094032AA
:10013E00E509B40A0678B77601802B30380ED23E28
:10014E00D23CC23DC23678B77608801AE509B4169D
:10015E000BAF1912465978B7760D800A78B7760725
:10016E00800478B7760678B7E6FF020215303D0FA9
:10017E00C23DC236E4F567F56878B7760C8028E59F
:10018E0016D39400400678B77609801BAF09123D4E
:10019E00F375693B78A4E6F56A08E6F56BC238C2DA
:1001AE003EC23C78B7760778B7E6FF805AE509B4C9
:1001BE00160BAF1912465978B7760D801DAF09127E
:1001CE003DF3AF091254D575693B78A4E6F56A087C
:1001DE00E6F56B850C1678B77607C238C23EC23C80
:1001EE0078B7E6FF8021E509B4170512547680042E
:1001FE0078B7760178B7E6FF800DE509B416047876
:10020E00B7760A78B7E6FF121E40E52C6480452BC0
:10021E007012E53F640F453E700A1255307E5A7FCC
:10022E0063125D22E52C30E31D125D4AE52C640855
:10023E00452B7012E53F6414453E700A125C837EB6
:10024E005A7F63025D22E52C30E109125D4AEF60B0
:10025E00030251F2E52C30E02E125D4AEF60287851
:10026E00B77607750917AF09123DF3AF091254D5CA
:10027E0075693B78A4E6F56A08E6F56B850C16E41D
:10028E00F51BF518121E3CE52B30E024125D4AEFEB
:10029E00601E78B7E6B40118900025E0F519E5194F
:1002AE006005D394054003751901124653121E3C86
:1002BE00E52B20E2030203A7125D4AEF700302034F
:1002CE006D78B7E6640D70487601900046E0F5094A
:1002DE0075693BE4F56AF56BF516E509D3940A40AA
:1002EE001BAF09123DF3AF091254D575693B78A4C3
:1002FE00E6F56A08E6F56B850C16806090004AE01C
:10030E00F51B900049E0F51890004BE0F508804C85
:10031E0078B7E664017048E509D39409500575096C
:10032E000A800375090175693BE4F56AF56BF516EC
:10033E00F51BF518E509D394095008751B017518BE
:10034E00028019AF09123DF3AF091254D575693BFE
:10035E0078A4E6F56A08E6F56B850C16121E3CE5E8
:10036E003F6424453E7032A245B39245900027303B
:10037E004503F0800374A5F078E376A5E4FFFE1242
:10038E0058E278E3765A7B017A007900E4FFFE1298
:10039E004D4C7E5A7F63125D22E52C20E40302054C
:1003AE00CE125D4AEF700ED3E53F940FE53E9400FA
:1003BE0050030205CE78B7E664017047E509C39491
:1003CE001540057509018002050975693BE4F56A5A
:1003DE00F56BF516F51BF518E509D394095008755C
:1003EE001B017518028019AF09123DF3AF091254A3
:1003FE00D575693B78A4E6F56A08E6F56B850C16AB
:10040E00121E3C78B7E6FF64027067E5096401606E
:10041E0005E509B4020EE51BD394015005751B04C6
:10042E008002151BE509B4040EE51BD3940150059B
:10043E00751B038002151BE50964056005E509B40B
:10044E00031BE51B24FE600D24FE600E2403700DBD
:10045E00751B048008751B018003751B02E509B42A
:10046E00060DE51BB40105751B038003751B0112F8
:10047E001E4078B7E66403706BE50964016005E51C
:10048E0009B40210E518C3940C40057518028004D7
:10049E0005180518E50964036011E5096406600B8B
:1004AE00E50964096005E509B40810E518C3940868
:1004BE004005751802800405180518E509640460E6
:1004CE0005E509B40510E518C3940A400575180230
:1004DE00800405180518E509B40803751301123ACE
:1004EE0047121E3C78B7E66408706D303C3FE56BF2
:1004FE0078B2667011E56A1866700B78AFE6F56B28
:10050E0018E6F56A8024E509640D600BE509640EB2
:10051E006005E509B41604056A800FE509B41404F4
:10052E00741E80027405256AF56A124002303D255C
:10053E00E568B4180FE567700B78ACE6F56818E659
:10054E00F567800EE56775F0058475F005A4240542
:10055E00F567124002121E3C78B7E6640970283027
:10056E003E22E516B515058514168015E509640CB1
:10057E006005E509B41104740A800274052516F5A8
:10058E0016124002121E3C78B7E6B40A16E519C3DD
:10059E009405400575190180020519AF19124659C7
:1005AE00121E3C78B7E6FFB40B16E508C394044060
:1005BE000575080180020508E4F51BF518121E40AA
:1005CE00E52C20E603020817125D4AEF700ED3E504
:1005DE003F940FE53E9400500302081778B7E66487
:1005EE00017047E509D39401500575091580021570
:1005FE000975693BE4F56AF56BF516F51BF518E51B
:10060E0009D394095008751B017518028019AF099A
:10061E00123DF3AF091254D575693B78A4E6F56A1D
:10062E0008E6F56B850C16121E3C78B7E6FF6402E1
:10063E007067E50964016005E509B4020EE51BC3A8
:10064E0094044005751B018002051BE509B4040ED8
:10065E00E51BC394034005751B018002051BE509CC
:10066E0064056005E509B4031BE51B24FE600D243B
:10067E00FE600E2403700D751B028008751B04802E
:10068E0003751B01E509B4060DE51BB40105751BC9
:10069E00038003751B01121E4078B7E66403706B6E
:1006AE00E50964016005E509B40210E518D394026A
:1006BE00500575180C800415181518E509640360AB
:1006CE0011E5096406600BE50964096005E509B4E6
:1006DE000810E518D39402500575180880041518F3
:1006EE001518E50964046005E509B40510E518D38D
:1006FE009402500575180A800415181518E509B4EA
:10070E000803751301123A47121E3C78B7E66408C7
:10071E0060030207B4303C60E56B78AF667011E59C
:10072E006A1866700B78B2E6F56B18E6F56A8045C6
:10073E00E509640D600BE509640E6005E509B41664
:10074E000FE56A7007756A3B156B8029156A80255F
:10075E00E509B4140FE56A7007756A1E156B8015EE
:10076E0074E2800DE56A7007756A37156B80067442
:10077E00FB256AF56A124002303D28E56878AC66C2
:10078E00700DE56718667007756818F5678011E5D6
:10079E006770077567371568800674FB2567F56700
:1007AE00124002121E3C78B7E664097028303E22D1
:1007BE00E516B514058515168015E509640C60055A
:1007CE00E509B4110474F6800274FB2516F51612B1
:1007DE004002121E3C78B7E6B40A16E519D394010E
:1007EE00500575190580021519AF19124659121EBA
:1007FE003C78B7E6FFB40B11E508D39401500575AC
:10080E00080480021508121E40E52B30E145125DEA
:10081E004AEF603F78B7E6FF64076005EF640D703E
:10082E0025203E0D203C0AD23ED23CD238C23DC2DB
:10083E0036E516D3940078B7400476098002760820
:10084E0078B7E6FF800A78B7E6B4090776087F081E
:10085E00121E40E52C30E243125D4AEF603D78B740
:10086E00E6640C7036203D33E509D3940A500E75BC
:10087E006732E4F56878AB763208F6800D856A67E4
:10088E00856B6878ABA66A08A66BD23DD236C23CA1
:10089E00C23E78B776087F08121E40E52C20E5038D
:1008AE00020A53125D4AEF7003020A5378B7E61438
:1008BE00B40D004003020A539008D475F003A4C58A
:1008CE008325F0C583730208FB02095C02096502E9
:1008DE0009970209A00209C2020A1C0209D9020ADA
:1008EE0005020A0D020A1A0209D7020A4AE509D3BD
:1008FE009409504BE50964077030E5199400400ED9
:10090E0090004BE0FFD3940040128F0880119000AE
:10091E0047E0FFD3940040048F088003750801E47C
:10092E00F51BF51878B7760B800478B77602E509D3
:10093E0064086005E509B4091378B77603806EE59F
:10094E000978B7B40A04760C80637607805F78B7AF
:10095E0076037F03020A50E5096403600BE5096420
:10096E00066005E509B4090678B77604800478B701
:10097E007605E509B408057513018003E4F5131235
:10098E003A4778B7E6FF020A5078B776057F050238
:10099E000A50E509B40812E513B4010875130212E2
:1009AE003A478009E4F513800078B7760678B7E603
:1009BE00FF020A50E50964066033E509B4090280B6
:1009CE006A78B7760C7F0C80798060303D02805B50
:1009DE00E509640D6017E50964116011E5096414F9
:1009EE00600BE50964136005E509B40E02803C78DE
:1009FE00B7760C7F0C804B78B776087F088043AFB4
:100A0E001912465978B7760D7F0D8036801DE5098F
:100A1E00640D6017E50964116011E5096414600B3B
:100A2E00E50964136005E509B40E09E478B7F6121A
:100A3E0038DA801178B7760C7F0C800678B7760C92
:100A4E007F0C121E40303704C237D23330330312BC
:100A5E001E3C30291178A9E6D39400400916E670A1
:060A6E00057F3F125D66EA
:010A7400225F
:10400200303D4FE567C3943C4005E4F5670568E53C
:1040120068D394184006756818E4F567E568B41823
:104022000DE567D394004006756818E4F56778AC2F
:10403200E6FFE568C39F50068F6818E6F56778AC1F
:10404200E6FFB5680D18E6FEE567C39E50048F686B
:104052008E67303C6BE509B41612E516D39464788A
:10406200B24004760280027609E418F6E56AC39447
:104072003C4005E4F56A056B78B2E6FFE56BD39F39
:1040820040068F6B18E6F56A78B2E6FFB56B0D183D
:10409200E6FEE56AD39E40048F6B8E6A78AFE6FF38
:1040A200E56BC39F50068F6B18E6F56A78AFE6FFA3
:1040B200B56B0D18E6FEE56AC39E50048F6B8E6ADF
:1040C200303E34E509B4161BE56BD39402500CE57F
:1040D2006BB4020CE56AD394004005751564800345
:1040E2007515A0E516D395154003851516E516C37B
:0840F2009514500385141622F9
:103DF300E4F530EF24F5B40D005074903E0C75F0EB
:103E030003A4C58325F0C58373023E33023E380203
:103E13003E3D023E42023E47023E4C023E51023EBE
:103E230056023E5B023E60023E65023E6A023E6F00
:103E3300E4F530803A753001803575300280307595
:103E43003003802B75300480267530058021753052
:103E530006801C753007801775300880127530098D
:103E6300800D75300A800875300B800375300CE5C2
:103E73003025E024DEF582E4343CF583E493FF123D
:103E83005CFF78A5A607E53025E024DEF582E4345F
:103E93003CF583E4740193FF125CFF78A4A607E565
:103EA3003025E024F8F582E4343CF583E493FF12F3
:103EB3005CFF78B2A607E53025E024F8F582E43408
:103EC3003CF583E4740193FF125CFF78B1A607E528
:103ED3003025E024C4F582E4343CF583E493FF12F7
:103EE3005CFF78AFA607E53025E024C4F582E4340F
:0F3EF3003CF583E4740193FF125CFF78AEA607E1
:013F0200229C
:1054D500EF24F3601E24FE601E24FE601E14600F80
:1054E50024FC601F146018240B701CE4FE801A7ED7
:1054F5000180167E0280127E03800E7E04800A7E65
:105505000580067E0680027EFFEEF46016EE903D75
:105515001993F50CEE903D2093F515EE903D129301
:0A552500F51422E4F50CF515F51459
:01552F002259
:0646530078B7760AAF19EA
:10465900EFD394005003024722EF94064003024728
:1046690022BF0103E4F52FBF0203752F07BF030320
:10467900752F0EBF0403752F15BF0503752F1CE495
:10468900F51BF518F513F50FF508C23CC23EC23DFE
:10469900C23675663BF567F56875693BF56AF56B72
:1046A900F516750916AF09123DF3AF091254D57401
:1046B90001252FF582E43400F583E0F56A740225BB
:1046C9002FF582E43400F583E0F56B7403252FF5AB
:1046D90082E43400F583E0F5167404252FF582E4AD
:1046E9003400F583E0900046F07405252FF582E447
:1046F9003400F583E090004AF07406252FF582E432
:104709003400F583E0900049F07407252FF582E421
:094719003400F583E090004BF040
:014722002274
:063A4700AB18AD1BAF0936
:103A4D00E4FEF52DF510F511F50AF50BEF640160A7
:103A5D0003BF0202E4FEBF03027E01BF04027E0229
:103A6D00EF6405600DEF64096008BF0807E513B446
:103A7D0001027E03BF06027E04BF0807E513B402F0
:103A8D00027E05EBC39402400CEBD3940C5006EB75
:103A9D00C31314F52DEE75F00CA42427F582E43430
:103AAD003DF58375F002E52D123590E493F5107414
:103ABD000193F511BF0105ED6401601EBF0105ED18
:103ACD0064036016BF0105ED6404600EBF0205EDD1
:103ADD0064016006BF0205BD0302E4FEBF0105EDF2
:103AED006402600EBF0505ED64016006BF0505BDEE
:103AFD0002027E01BF0205ED64026006BF0405BD32
:103B0D0002027E02BF0205BD04027E03BF0305ED66
:103B1D0064016006BF0305BD04027E04BF0305ED0D
:103B2D0064026006BF0505BD04027E05BF0405EDF8
:103B3D0064016006BF0405BD03027E06BF0606E5EF
:103B4D000F70027E07BF09027E08BF08027E09BF03
:103B5D000607E50FB401027E0AEE75F00CA4246F82
:103B6D00F582E4343DF58375F002E52D123590E4D0
:083B7D0093F50A740193F50BA6
:013B8500221D
:022525008D2DFA
:10252700E4FEF52E78C6F608F608F608F608F6086B
:10253700F608F608F608F608F608F608F608F608A4
:10254700F608F608F6EBC39402400CEBD3940C5054
:1025570006EBC31314F52EBF0107E52DB40102E402
:10256700FEBF0107E52DB404027E01BF0206E52D7B
:1025770064016011BF0206E52D64036008BF02070E
:10258700E52DB404027E02BF0306E52D6401600851
:10259700BF0307E52DB404027E04BF0507E52DB48C
:1025A70001027E05BF0507E52DB402027E06BF05C1
:1025B70007E52DB404027E07BF08027E0875F00CFC
:1025C700EEA4248FF582E5F03430F58375F002E54B
:1025D7002E123590E493FC74019378C6A60408F68E
:1025E70075F00CEEA424FBF582E5F03430F5837525
:1025F700F002E52E123590E493FC74019308A604CB
:1026070008F675F006EEA42467F582E5F03431F597
:1026170083E582252EF582E43583F583E4930876F6
:102627000008F6EF6402706DE52D640170677E03A4
:1026370075F00CEEA4248FF582E5F03430F5837540
:10264700F002E52E123590E493FC74019308A6047A
:1026570008F675F00CEEA424FBF582E5F03430F5AE
:102667008375F002E52E123590E493FC740193080C
:10267700A60408F675F006EEA42467F582E5F034A3
:1026870031F583E582252EF582E43583F583E493DE
:1026970008760008F6BF0102E4FEBF02027E01BF12
:1026A70003027E0275F00CEEA4249DF582E5F0345A
:1026B70031F58375F002E52E123590E493FC740131
:1026C7009378D2A60408F6BF0107E52DB40102E40A
:1026D700FEBF0107E52DB402027E01BF0107E52D0C
:1026E700B403027E02BF0107E52DB404027E03BFD7
:1026F7000207E52DB401027E04BF0207E52DB402EF
:10270700027E05BF0207E52DB403027E06BF02075E
:10271700E52DB404027E07BF0307E52DB401027E51
:1027270008BF0307E52DB402027E09BF0307E52DA5
:10273700B404027E0ABF0407E52DB401027E0BBF75
:102747000407E52DB402027E0CBF0407E52DB40390
:10275700027E0DBF0507E52DB401027E0EBF0507FA
:10276700E52DB402027E0FBF0507E52DB404027EF6
:1027770010BF06052040027E11BF060E30400BE554
:102787002DB401047E0E80027E12BF08027E14BFA4
:1027970009052040027E15BF09053040027E1675E7
:1027A700F006EEA424C1F582E5F03431F583E58225
:1027B700252EF582E43583F583E49378D4760008F3
:1027C700F6BF07307E13E508D394004005E50814EB
:1027D700F52E75F006EEA424C1F582E5F03431F547
:1027E70083E582252EF582E43583F583E49378D457
:0427F700760008F66A
:0127FB0022BB
:041E3C0078B7E6FF8E
:101E40008F2F7F1F125D667F10125D6D7F01125D07
:101E50006D755C58E52F14B40D00400302221790F5
:101E60001E6D75F003A4C58325F0C58373021E940F
:101E7000021EAA021EB8021EEC021F23021F7D02D0
:101E8000205602209902212C0221710221A2021F58
:101E9000D70221E0E509D3940950047B0180027B3D
:101EA00002E4FDAF0912517D80097B03AD1BAF0930
:101EB00012517DE4FDFF800D7B04AD1BAF09125173
:101EC0007D7D01AF181255E1E4F536FBFDFCFFFE08
:101ED0001248A67B007A007900E4F536FDAF1912AE
:101EE000359C7B01E4FDFCFFFE0222147B04AD1B4C
:101EF000AF0912517D7D02AF181255E1E4F536FBB2
:101F0000FDFCFFFE1248A67B007A007900E4F5365E
:101F1000FDAF1912359C7E4F7FDAE4FB7D587C02C1
:101F20000222147B04AD1BAF0912517D7D02AF1854
:101F30001255E1753601AB13AD0BAC0AAF11AE1003
:101F40001248A67B007A007900E4F536FDAF19123D
:101F5000359CE5096403600BE50964066005E50945
:101F6000B4090D7E4F7FB6E4FB7D587C020222143B
:101F70007E4F7FBEE4FB7D587C020222147B04ADC1
:101F80001BAF0912517D7D02AF181255E175360263
:101F9000AB13AD0BAC0AAF11AE101248A67B007AA2
:101FA000007900E4F536FDAF1912359CE5096403AC
:101FB000600BE50964066005E509B4090D7E4F7FF5
:101FC000C8E4FB7D587C020222147E4F7FD0E4FBE4
:101FD0007D587C020222147B04AD1BAF0912517D97
:101FE0007D02AF181255E1E4F536AB13FDFCFFFEA0
:101FF0001248A6E509D3940A7B00500A7A007900BA
:10200000E4F536FD80097A007969753601AD16AFC1
:102010001912359CE509D39409501DE50964036044
:102020000BE50964066005E509B409067E4F7FAA41
:10203000800A7E4F7FAE80047E4F7FB2E4FB7D58E6
:102040007C021254137F02125D6DE5096417600370
:1020500002221702216C7B04E4FDAF0912517DE4DA
:10206000FDFF1255E1E4F536FBFDFCFFFE1248A62C
:102070007B007A007969753601AD16AF1912359C6F
:102080007E4F7FB2E4FB7D587C02125413E5096455
:1020900017600302221702216C7B04AD1BAF0912EB
:1020A000517D7D02AF181255E1E4F536AB13FDFC0E
:1020B000FFFE1248A6303D177B007A007966753620
:1020C00005AD16AF1912359C7F0212002E8021E556
:1020D00009D3940A7B00500A7A007900E4F536FDB2
:1020E00080097A007969753605AD16AF1912359CED
:1020F000E509D39409501DE5096403600BE5096403
:10210000066005E509B409067E4F7FAA800A7E4F66
:102110007FAE80047E4F7FB2E4FB7D587C02125478
:1021200013E5096417600302221780407B04E4FD75
:10213000AF0912517DE4FDFF1255E1E4F536FBFDD8
:10214000FCFFFE1248A67B007A007969753604AD63
:1021500016AF1912359C7E4F7FB2E4FB7D587C028E
:10216000125413E509641760030222177F08025D09
:102170006DE4FBFDFF12517DE4FDFF1255E1E4F536
:1021800036FBFDFCFFFE1248A67B007A00796975DC
:102190003603AD16AF1912359C7B01E4FDFCFFFE42
:1021A00080377B04E4FDAF0912517DE4FDFF125539
:1021B000E1E4F536FBFDFCFFFE1248A6E50844808D
:1021C000FF7B007A007900753603E4FD12359C7EB2
:1021D0004F7FAEE4FB7D587C02125413755C1E22C7
:1021E0007B04E4FDAF0912517DE4FDFF1255E1E4EB
:1021F000F536FBFDFCFFFE1248A67B007A007969EC
:10220000753601AD16AF1912359C7E4F7FB2E4FBD7
:082210007D587C0212541322D8
:10148000125D558E2B8F2CE52C30E751125D4AEF03
:10149000603978B8E624FA600C24FE702778B876B4
:1014A000057F05801AE50964066005E509B4091B96
:1014B000C23DC236E4F567F56878B876087F081251
:1014C0001A0380077E5A7F7F125D22E52C648045D7
:1014D0002B700AE53F640F453E70028026E52C30F4
:1014E000E32B125D4AEF60077E5A7F7F125D22E593
:1014F0002C6408452B7016E53F640F453E700EF5D1
:101500003EF53F1255307E5A7F7C02197BE52C2038
:10151000E4030215D7125D4AEF700ED3E53F940F36
:10152000E53E940050030215D778B8E6640670745F
:10153000303C46E56B78B2667011E56A1866700B50
:1015400078AFE6F56B18E6F56A8024E509640D606E
:101550000BE509640E6005E509B41604056A800F01
:10156000E509B41404741E80027405256AF56A1234
:10157000400275693B78C07605303D25E568B418B2
:101580000FE567700B78ACE6F56818E6F567800E36
:10159000E56775F0058475F005A42405F56712402C
:1015A000021219FF78B8E66407702C303E26E51663
:1015B000B515058514168015E509640C6005E50967
:1015C000B41104740A800274052516F5161240023F
:1015D00078C076051219FFE52C20E6030216C81222
:1015E0005D4AEF700ED3E53F940FE53E9400500343
:1015F0000216C878B8E664066003021695303C67A8
:10160000E56B78AF667011E56A1866700B78B2E624
:10161000F56B18E6F56A8045E509640D600BE50990
:10162000640E6005E509B4160FE56A7007756A3B3C
:10163000156B8029156A8025E509B4140FE56A70D9
:1016400007756A1E156B801574E2800DE56A7007D8
:10165000756A37156B800674FB256AF56A124002BD
:1016600075693B78C07605303D28E56878AC6670D2
:101670000DE56718667007756818F5678011E567EE
:1016800070077567371568800674FB2567F5671264
:1016900040021219FF78B8E66407702C303E26E548
:1016A00016B514058515168015E509640C6005E569
:1016B00009B4110474F6800274FB2516F516124065
:1016C0000278C076051219FFE52B30E15E125D4A03
:1016D000EF605878B8E66401703EE509D3940A409B
:1016E0004A203D27203E0F203C0C78C07605D23E94
:1016F000D23CC23DC236E516D3940078B840047699
:10170000078002760678B8E6FF801DE509D3940AC3
:10171000401978BF7605801378B8E6B4070D78C015
:10172000760578B876067F06121A03E52C30E23883
:10173000125D4AEF603278B8E66408702B203D28CD
:10174000E50964066005E509B4091D756732E4F52D
:101750006878AB763208F6D23DD236C23CC23E78CB
:10176000B876067F06121A03E52C20E5030218203E
:10177000125D4AEF700302182078B8E614B408002E
:10178000400302182090179375F003A4C58325F039
:10179000C583730217AB0217C50217CD0217E50206
:1017A00017ED0217FD0218130217F5E509640E7014
:1017B0006F30346C203B69D23B2045647E5A7F6594
:1017C000125D22805B78B876037F038050E4F513C6
:1017D00078B87605E509B40603750F01123A477823
:1017E000B8E6FF803878B876057F05803078B8761F
:1017F000087F08802878B87601D2408011E5096416
:10180000066005E509B40902D24078B876011238BD
:10181000DA800D78B8760678C076057F06121A034E
:10182000E52B30E00E125D4AEF6008A241B3924111
:101830001219FF303704C237D23330292478BFE67B
:10184000D39400400616E67002D23378C0E6D394F3
:1018500000400E16E6700A7E5A7F63125D2212382F
:10186000DA3033031219FF303D0302197ED232D22F
:101870003AC246D247E50964066005E509B409079E
:10188000204004D246C247E569643B7030E56A7087
:101890002CE56B7028E50964066009E509640960B8
:1018A000030219FE78B8E6640170030219FE125BA8
:1018B0004DE4F552C231C230C247C2462278B8E682
:1018C000640160030219FEE509640E7027203B24C1
:1018D000203403F50E222000030219FEC200050E7B
:1018E000E50EC3941450030219FEE4F50E7E5A7FF0
:1018F0007902197B2000030219FEC2007B007A00E6
:1019000079691257AFE569643B60030219FBE56A28
:1019100060030219FBE56B60030219FBE50964062D
:101920006005E509B4091420401178B87602125B0D
:101930004D7E5A7F76125D220219FBE50964116023
:101940002AE50964146024E509640E601EE5096453
:10195000156018E50964136012E5096412600CE56E
:1019600009B4160CE516D39464500512553080075F
:101970001251F2D23FD2007E5A7F72025D22125B78
:101980004DC23AE4F552C231C230C247C24678B8BD
:10199000E664017069303646C23678B5A66818A686
:1019A0006778A8A66B18A66AE569B43B14E56A7067
:1019B00010E56B700C78ACE678A8F678ABE678A703
:1019C000F678A8E6FF78B5E6FEC39F5002801AEECF
:1019D0006F701A79B4E7D378A7965011800B78A866
:1019E000E6B5680918E6B56704C23DD23730010E86
:0E19F000C2017B007A0079661257AF1219FF10
:0119FE0022C6
:0419FF0078B8E6FFCF
:021A03008F2D25
:101A05007F1F125D667F10125D6D7F01125D6DE5B2
:101A15002D14B408004003021E3B901A2D75F003E7
:101A2500A4C58325F0C58373021A45021C08021C50
:101A35003A021C7A021CAF021CFA021DA7021DF411
:101A45007B04AD1BAF0912517D7D02AF181255E124
:101A5500E4F536AB13FDFCFFFE1248A6303D2778B2
:101A6500BFE6700AFB7A00796675360280097B004D
:101A75007A007969753601AD16AF1912359C7F026A
:101A850012002E021B1BE509D39409505CE509647D
:101A950007702FE569B43B18E56A7014E56B7010A3
:101AA500E5084480FF7B007A007900753606800ED4
:101AB500E5084480FF7B007A007969753602E4FD0C
:101AC5008051E569B43B13E56A700FE56B700BFB5C
:101AD500FAF9753606FDAF1980397B007A00796908
:101AE500753602E4FDAF19802AE509640A6008E548
:101AF50009B40E12203B0F7B007A0079007536067B
:101B0500E4FDAF19800D7B007A007969753602AD69
:101B150016AF1912359CE509D39409501DE50964E2
:101B250003600BE50964066005E509B409067E4F07
:101B35007FAA800F7E4F7FAE8009E509B40D087E30
:101B45004F7FB27B02801E7E4F7FAE7B027D587C2D
:101B550002125413E509B40E13303410203B0D7EE8
:101B65004F7FB2E4FB7D587C021254137F1F125D38
:101B7500667F1012002EE509B417057F0812002EA6
:101B8500303D057F0212002E204103021E3BE4FB7F
:101B9500FDFF12517DE4FDFF1255E1125D73752EB7
:101BA500008F2F125CC58E2E8F2F7F01125D5FADCA
:101BB500077C00125CC5AC06AD07753603E4FBAFC8
:101BC5002FAE2E1248A6E4FF125D5F752E008F2FF3
:101BD500AE50AF517C007D3C1234D678BAA607AE24
:101BE50050AF517C0E7D101234D678BBA607AD2FB1
:101BF5007B007A0079B9753607E4FF12359C7F1FA3
:101C0500025D667B04AD1BAF0912517D7D02AF18E5
:101C15001255E1E4F536AB13FDFCFFFE1248A67B39
:101C2500007A007900E4F536FDAF1912359C7E4F38
:101C35007FE2021CF17B04AD1BAF0912517D7D02D1
:101C4500AF181255E1E4F536AB13FDFCFFFE124863
:101C5500A67B007A007900E4F536FDAF1912359CB4
:101C6500E50964066009E50964096003021E3B7E17
:101C75004F7FF880777B04AD1BAF0912517D7D0244
:101C8500AF181255E1753601AB13AD0BAC0AAF11A8
:101C9500AE101248A67B007A007900E4F536FDAF58
:101CA5001912359C7E4F7FBE80427B04AD1BAF0968
:101CB50012517D7D02AF181255E1753602AB13AD99
:101CC5000BAC0AAF11AE101248A67B007A00790062
:101CD500E4F536FDAF1912359CE50964066009E5A2
:101CE5000964096003021E3B7E4F7FC8E4FB7D58F3
:101CF5007C020254137B04AD1BAF0912517D7D029A
:101D0500AF181255E1E4F536AB13FDFCFFFE1248A2
:101D1500A6303D177B007A007966753605AD16AF9E
:101D25001912359C7F0212002E8021E509D39409F2
:101D35007B00500A7A007900E4F536FD80097A00C7
:101D45007969753605AD16AF1912359CE509D39439
:101D5500095012E50964066006E509640970387ED4
:101D65004F7FAA8029E509B40D087E4F7FB27B021B
:101D7500801E7E4F7FAE7B027D587C02125413E598
:101D850009B40E13303410203B0D7E4F7FB2E4FBB7
:101D95007D587C02125413E50964176003021E3B4B
:101DA50080487B04E4FDAF0912517DE4FDFF125527
:101DB500E1E4F536FBFDFCFFFE1248A67B007A0048
:101DC5007969753604AD16AF1912359CE509B40D60
:101DD500067E4F7FB280047E4F7FAE7B027D587CAE
:101DE50002125413E5096417704C7F0802002E7B1C
:101DF50004AD1BAF0912517D7D02AF181255E1E408
:101E0500F536AB13FDFCFFFE1248A67B007A007980
:101E150000E4F536FDFF12359CE50964066005E52D
:101E250009B4090D7E4F7FAAE4FB7D587C0212544C
:061E3500137F02125D6D37
:011E3B002284
:10373D007F01125D5F8F2DE4FF125D5F8F2E125D95
:10374D00558E2B8F2C203F0302381DD23AE50DC329
:10375D00940F5031E50DC3940A400D7552417553C8
:10376D003C7554F0C2318016E50DC39405E4400854
:10377D00F552D231C2308006F552C231D2303029E5
:10378D0034050D803075524675534175540A754F89
:10379D0014E52EC394445002D230E52ED394494003
:1037AD0002C230E52DC394505002D231E52DD39491
:1037BD00554002C23120000302385DC2007B007A01
:1037CD00007969125C9AE56BB4170DE56AB43B0894
:1037DD00E569B43B03025476E4FBFDFF12517DE431
:1037ED00FDFF1255E1E4F536FBFDFCFFFE1248A688
:1037FD007B007A007969753602E4FDFF12359C7FF6
:10380D001F125D667F0412002E7F2012002E804055
:10381D00D3E52C9400E52B9400402178A9E67004A3
:10382D00F52BF52C7F2012002E7F10125D6D7F0180
:10383D00125D6D7F04125D6D78A9763C302911788B
:10384D00A9E6D39400400916E670057F3F125D6628
:10385D00E52C30E50B125D4AEF6005203F02D23FAB
:10386D00E52C30E72F125D4AEF600F303F097E5A8D
:10387D007F7F125D228003125530E52C6480452B2D
:10388D007012E53F640F453E700A1255307E5A7F27
:10389D007C125D22E52C30E333125D4AEF600F3070
:1038AD003F097E5A7F7F125D228003125530E52C31
:1038BD006408452B7016E53F640F453E700EF53ECE
:0C38CD00F53F1255307E5A7F7C125D22C0
:0138D90022CC
:105AD800125D55EF30E312125D4AEF600C125476F6
:105AE8002045167E5A7F7F800DE529700C851A1295
:095AF800D2377E5A7F65125D224F
:015B01002281
:1059F600125D55D3EF9400EE94004013125D4AEF0A
:105A0600600D1255302045197E5A7F65025D227F52
:105A16003F125D66C23AE4F552C231C285C230C257
:015A260086F9
:015A2700225C
:103B8600125D558E2B8F2CE52C30E712125D4AEF15
:103B9600600C78B6E6B40803068003125476E52C6A
:103BA60030E412125D4AEF600C78B6E6FF6003B4AB
:103BB600050378B606E52C30E00D125D4AEF600786
:103BC60078B6E6B4010106E52C30E10D125D4AEF48
:103BD600600778B6E6B4020106E52C30E20D125D08
:103BE6004AEF600778B6E6B4030106E52C30E30D2C
:103BF600125D4AEF600778B6E6B4040106E52C309C
:103C0600E50D125D4AEF600778B6E6B4060106E5F3
:103C16002C30E60D125D4AEF600778B6E6B4070170
:103C260006E52B30E00D125D4AEF600778B6E6B484
:103C3600090106E52B30E10D125D4AEF600778B603
:103C4600E6B40A0106E52B30E273125D4AEF606DB9
:103C560078B6E6FF640B601EEF640C6019EF640D26
:103C66006014EF640E600FEF640F600AEF6410607B
:103C760005EF6411704778B606E6FFB40F09D23A2D
:103C8600E4F552D231C230EFB41009D23AE4F5521B
:103C9600C231D230EFB4110FD23A75526675536401
:103CA6007554F0C231C230EFB41212C23AE4F55282
:0D3CB600C231C230F5547E5A7F63125D2288
:013CC30022DE
:104581007B017A007900E4FFFE125A83900000E07B
:10459100645A700302462EA3741EF0E4A3F0A374C0
:1045A10064F0A37401F0A3F0A304F0E4A3F0A374F6
:1045B1001EF0E4A3F0A37464F0A37401F0A3F0A3CC
:1045C10004F0E4A3F0A3741EF0E4A3F0A37464F078
:1045D100A37401F0A3F0A304F0E4A3F0A3741EF00C
:1045E100E4A3F0A37464F0A37401F0A3F0A304F0B6
:1045F100E4A3F0A3741EF0E4A3F0A37464F0A37425
:1046010001F0A3F0A304F0E4A3F0A304F0E4A3F009
:10461100A3F0A3F078E376A5FFFE1258E278E376E3
:104621005A7B017A007900E4FFFE124D4CC24578B5
:10463100BD7601087690D242E4F512C22990004875
:10464100F07F2012002E7F1F12002E7E5A7F630200
:024651005D22E8
:10547600751202125B4DC23AE4F552C231C285C2C0
:1054860030C286750901751B01751802F513F50FF3
:10549600F508F51978B7760175693BF56AF56BF588
:1054A600167F01121E4075663BE4F567F568F50D3B
:1054B600F529C23DC236C23CC23EC23878C0F67833
:0F54C600A9763C7F2012002EC240C246C2472268
:10553000125476900024E0F509900026E090004790
:10554000F0E509B4160B900025E0F51912465380DA
:1055500032E50978B7B41704760780027601E509C9
:10556000D3940A401EAF09123DF3AF091254D5750A
:10557000693B78A4E6F56A08E6F56B850C16E4F558
:0A5580001BF51878B7E6FF021E4085
:1038DA00E4FFFEE519D3940050030239CEE519B48A
:1038EA000100E519B402027F07E519B403027F0E4D
:1038FA00E519B404027F15E519B405027F1CE50930
:10390A006416706B74012FF582E43400F583E06568
:10391A006A702C74022FF582E43400F583E0B56BEB
:10392A001E74032FF582E43400F583E0B516109077
:10393A000024E0B50909A3E0651970030239EE7E97
:10394A000174012FF582E43400F583E56AF074020C
:10395A002FF582E43400F583E56BF074032FF582CA
:10396A00E43400F583E516F0900024E509804EE57D
:10397A0009D39400406EE509D3941550677E01740B
:10398A00042FF582E43400F583E509F074052FF578
:10399A0082E43400F583E51BF074062FF582E434E3
:1039AA0000F583E518F0E509B4070D74072FF582D1
:1039BA00E43400F583E508F09000247416F0A3E5DA
:1039CA0019F08020900024E0B50908900026E065EF
:1039DA000860117E01900024E509F0B40706900002
:1039EA0026E508F0BE011A78E376A5E4FFFE125830
:1039FA00E278E3765A7B017A007900E4FFFE124D01
:103A0A004C75120378B876017F01121A03AB18AD10
:103A1A001BAF09122525AD1BAF09122218C23CC2E1
:103A2A003EC238C241E478C0F618F6FF125D5F8FD5
:0D3A3A00177F2012002E7E5A7F63025D224E
:1051F200751204125B4DC23AE4F552C231C285C245
:1052020030C286F569F56AF56BC23DC236C23CF51D
:105212000DC23FC246C24778A9763CFBFDFF125140
:105222007DE4FDFF1255E1E4F536FBFDFCFFFE12C5
:1052320048A67B007A007969753601E4FDFF1235D4
:105242009C7B01E4FDFCFFFE1254137F1F125D667E
:105252007F10125D6D7F01125D6D7F04125D6D7FA7
:045262002002002EF8
:105C8300751205125B4DC23AE4F552C231C285C2A8
:075C930030C28678A9F62259
:1041F100E4FF125D5F8F2B7F01125D5F8F2CE4FF67
:10420100125D3E8E2D8F2E7F01125D3E8E2F8F30DF
:10421100303218E509B40E13203410E52CC3945A3A
:104221004009D2347E5A7F80125D22203206E51287
:1042310064047039302936E52BC394A0402B78BC37
:1042410006E694034027E50964166014E509640F46
:10425100600EE509640D6008E50964126002D24C44
:10426100E512B40408D24C8004E478BCF6E512648B
:1042710007600FE51264066009203206E512640446
:104281007038C3E52E940AE52D9400400BD3E52E3A
:1042910094F6E52D94034004D2498002C249C3E556
:1042A10030940AE52F9400400BD3E53094F6E52FC6
:1042B10094034004D2488002C248E5126403600BB3
:1042C100E51264046005E512B4071AE52960168554
:1042D100121A7512067E5A7F67125D22C23AE4F500
:0542E10052C231C230A1
:0142E60022B5
:1058A700D378BEE6940018E69400402E08E6161852
:1058B700700116E54364204542701FD3E53F940409
:1058C700E53E94004014E5126407600E751207E484
:0B58D70078B6F67E5A7F65125D222233
:100A750005131E2C3F007882F0050005F100810367
:100A85004681FF00F1F10A140005F20082FF00879C
:100A95008C190500035D8305080083FF007882F14A
:100AA500F10005F50084017D840E03000200FF00BE
:100AB500666E051E000E02000000FF05131E2C3A8F
:100AC500007882F0050005060081034681FF004C91
:100AD5004E0A140007140082FF00878CF0050003FE
:100AE5005D8305080083FF0078820A140005F50080
:100AF50084017D84FF00666E051E000E0200000065
:100B0500FF0715202E394755007882F0050005F1BD
:100B15000081033C81FF00F1F10A140005F2008217
:100B2500FF007882F0050005F30083035583FF007D
:100B3500F2F20A140005F40084FF00878CF005002A
:100B450005050085035D85FF007882140A00017D97
:100B55008605F50086FF00666C051E000E02000086
:100B650000FF05131E2C3A007882F00500050600EB
:100B750081033C81FF0046480A1400070A0082FFF2
:100B850000878CF0050005080083035D83FF00786E
:100B950082140A00017D8405F50084FF00666C055A
:100BA5001E000E02000000FF05131E2C3A0078827D
:100BB500F0050005F10081033C81FF00F1F10A1405
:100BC5000005F20082FF00878CF005000508008310
:100BD500035D83FF007882140A00017D8405F5001A
:100BE50084FF00666C051E000E02000000FF06145F
:100BF5001F2D3847007882F0050005F10081034676
:100C050081FF00F1F1140A0005F20082FF007882ED
:100C1500F00500035C8305080083FF0078820A1451
:100C25000005F50084FF0078820A14000E0200001A
:100C350000017D85FF0E01000000FF06141F2D3801
:100C450047007882F0050005060081034681FF0014
:100C55004C4E0A1400070A0082FF007882F0050056
:100C6500035C8305080083FF0078820A140005F5FC
:100C75000084FF0078820A14000E02000000017D46
:100C850085FF0E01000000FF050F1A2837002828F0
:100C9500F00500012481FF002626051900057800CE
:100CA50082FF007882F00500050E0083035C83FF58
:100CB5000078820A14000E02000000017D84FF0EF8
:100CC50001000000FF050F1A2837002828F005004D
:100CD500012481FF002626051900070A0082FF006E
:100CE5007882F0050005100083035C83FF0078829D
:100CF5000A14000E02000000017D84FF0E010000B1
:100D050000FF05131E2C3A007882F0050005F1005E
:100D150081033C81FF00F1F10A140005F20082FF16
:100D2500007882F00500050A0083035C83FF0078E4
:100D3500820C140005100084017884FF001E1E0536
:100D450019000E02000000FF05131E2C3A007882E0
:100D5500F0050005F10081033C81FF00F1F10A1463
:100D65000005F20082FF007882F00500050A008385
:100D7500035C83FF0078820C14000516008401785B
:100D850084FF001E1E0519000E02000000FF030D62
:100D95001800828CF00500035A81FF00828C0C1428
:100DA5000005050082FF0046480A14000E020000F7
:100DB50000FF030D1B00828CF00500035C81FF0022
:100DC500828C0C140001878205780082FF007882EE
:100DD5000618000E02000000FF030D1B00828CF0B8
:100DE5000500035C81FF00828C0C140001878205DD
:100DF5003C0082FF0078820C14000E02000000FF08
:100E050004172A3A006E7DF00500033C010E03022B
:100E15003C14050F0001FF006E78F1F100035A82C2
:100E25000E03035A02050F0082FF00282D05370027
:100E3500070500830E03000000FF006061F2F20069
:100E45000E02000000FF06141F2D3B4A0078821E8B
:100E5500050005F10081034B81FF00F1F10A140043
:100E650005F20082FF007882F00500050800830383
:100E75005C83FF0078820F0F00017884050F0084E2
:100E8500FF001E1E0519000182850E02000000FFED
:100E95000E01000000FF030D1800828CF005000311
:100EA5005A81FF00828C0C140005050082FF004664
:100EB500480A14000E02000000FF020C00828CF0AC
:100EC5000500035A81FF00828C0C14000E020000FD
:100ED50000FF09172235485B6E818C00555AF005D5
:100EE50000014181050A0081FF003C410F1E0005FC
:100EF500080082FF007882F005000337030E030225
:100F0500371405280003FF007882F1F100035284AD
:100F15000E0303550105280084FF007882F1F100D6
:100F2500035C850E03036201050C0085FF008287C3
:100F3500F1F100018287050800860E03000100FF1C
:100F4500008287F1F100018287050A00870E030000
:100F55000200FF0062640A1E00050E0088FF0E01F4
:100F6500000000FF03101D00828CF00500035A01EC
:100F7500018C02FF00828C1E1400045800018C02B3
:100F8500FF0E01000000FF020C006464F005000183
:100F95005801FF0064640A1400025500FF020C00AA
:100FA500828CF00500035A01FF00828C0C140004AA
:100FB5005800FF030D1900828CF00500035801FF4E
:100FC50000828C1414000E04000001FF005F600510
:100FD5001900FF03101A00787DF005000150010388
:100FE5003202FF0070720F1500033702FF005050E8
:100FF5000A1400FF020C002626F00500011E01FF61
:10100500002525051900021C00FF03101D00828C18
:10101500F00500035A01018C02FF00828C0F0F00BE
:10102500045800018C02FF0E01000000FF03101A96
:1010350000787DF00500015001033202FF00707257
:101045000F1500033202FF004E4E0A1400FF031075
:101055001A00787DF00500015A01035602FF007061
:10106500720F1500035602FF0062640C1800FF02A0
:101075000C001E1EF00500011801FF001E1E0519BB
:1010850000021600FF020C002828F00500012001CF
:10109500FF002828051900021E00FF020C002D2D57
:1010A500F00500012501FF002D2D05190002230083
:1010B500FF020C003232F00500012A01FF00323236
:1010C500051900022800FF020C003737F005000162
:1010D5002F01FF003737051900022D00FF020C0014
:1010E5003C3CF00500013401FF003C3C05190002C1
:1010F5003200FF020C004141F00500013901FF00FB
:101105004040051900023700FF020C004646F00575
:1011150000013E01FF004545051900023C00FF02A4
:101125000C004B4BF00500014301FF004A4A05192D
:1011350000024100FF020C005050F005000148017B
:10114500FF004E4E051900024600FF020C005555E2
:10115500F00500014D01FF005353051900024B0036
:10116500FF020C005A5AF00500015001FF005858C3
:10117500051900024F00FF020C005F5FF00500013A
:101185005501FF005D5D051900025400FF020C00CA
:101195006464F00500015801FF0064640A1400024C
:1011A5005500FF050F1A242E006162F0050001505D
:1011B50081FF002E30021C00071E0002FF00616245
:1011C5000A0A00015D04FF006162F00500015D048B
:1011D500FF006162F3F400025D03FF050F1A242E80
:1011E500006364F00500015281FF002E30021C00EF
:1011F500071E0002FF0063640A0A00015F04FF0086
:101205006364F00500015F04FF006364F3F400020A
:101215005F03FF050F1A242E006566F005000155D2
:1012250081FF002E30021C00071E0002FF006566CC
:101235000A0A00016104FF006566F005000161040A
:10124500FF006566F3F400026103FF050F1A242E03
:10125500006A6BF00500015A81FF002E30021C0068
:10126500071E0002FF006A6B0A0A00016604FF0000
:101275006A6BF00500016604FF006A6BF3F4000277
:101285006603FF050F1A242E006F70F00500015A42
:1012950081FF002E30021C00071E0002FF006F7048
:1012A5000A0A00016B04FF006F70F00500016B0472
:1012B500FF006F70F3F400026B03FF050F1A242E75
:1012C500007475F00500015F81FF002E30021C00DF
:1012D500071E0002FF0074750A0A00017004FF0072
:1012E5007475F00500017004FF007475F3F40002D5
:1012F5007003FF050F1A242E00797AF00500015FAF
:1013050081FF002E30021C00071E0002FF00797AC3
:101315000A0A00017504FF00797AF00500017504D9
:10132500FF00797AF3F400027503FF050F1A242EE6
:10133500007E7FF00500016481FF002E30021C0055
:10134500071E0002FF007E7F0A0A00017A04FF00E3
:101355007E7FF00500017A04FF007E7FF3F4000232
:101365007A03FF050F1A242E008283F0050001641D
:1013750081FF002E30021C00071E0002FF00828341
:101385000A0A00017E04FF008283F00500017E0445
:10139500FF008283F3F400027E03FF050F1A242E5B
:1013A500008788F00500016981FF002E30021C00CE
:1013B500071E0002FF0087880A0A00018304FF0058
:1013C5008788F00500018304FF008788F3F4000295
:1013D5008303FF050F1A242E008C8DF00500016E86
:1013E50081FF002E30021C00071E0002FF008C8DBD
:1013F5000A0A00018804FF008C8DF00500018804AD
:10140500FF008C8DF3F400028803FF050F1A242ECC
:10141500009192F00500017381FF002E30021C003F
:10142500071E0002FF0091920A0A00018D04FF00C9
:101435009192F00500018D04FF009192F3F40002F2
:101445008D03FF050F1A242E009697F005000178ED
:1014550081FF002E30021C00071E0002FF00969738
:101465000A0A00019204FF009697F0050001920414
:0B147500FF009697F3F400029203FFC3
:1052A40002480000024A0000014C000246000001CE
:1052B4004500014400024D000001C30001C2000189
:1052C400D60001C50001D80001D70001C10001C406
:0152D40000D9
:035D7300AF4C2210
:105B4D00E4F54CF54AF54BC232C243C244F546F575
:105B5D0047F54DF54EF550F551F545F544C234C2B6
:045B6D003BF50D22D5
:10221800EF14B41700400302252290223075F00312
:10222800A4C58325F0C58373022275022299022270
:10223800C10222E00222FF02231E02234402234D90
:1022480002235602236B02237402237D0223A50274
:1022580024D30223A50224CB0224DB0223A50224D3
:10226800F40224FC0225040223A502250CED6401D6
:102278006003BD040675480A754975ED6402600877
:10228800ED6403600302252275480A7549C00225DA
:1022980022BD010675480B754906BD020675480B37
:1022A800754967ED64036008ED6404600302252244
:1022B80075480B7549AD022522ED64016003BD0424
:1022C8000675480B7549F3ED640260030225227513
:1022D800480C754940022522BD010675480C754910
:1022E8008DED64026008ED640360030225227548E1
:1022F8000C7549CA022522ED64016003BD0206750A
:10230800480D754907ED6404600302252275480DE0
:1023180075494D02252220400975480D75499302DB
:102328002522BD010675480D7549B7ED64036003A4
:1023380002252275480D7549DE02252275480E755D
:10234800490502252275480E75494B022522204071
:102358000975480E75499B02252275480E7549BFB7
:1023680002252275480E7549D702252275480F7532
:102378004969022522E516B4500675481175493A8F
:10238800E516B45A06754811754966E51664646021
:102398000302252275480F75498C022522E516B4DB
:1023A800280675481075498AE516B42D0675481033
:1023B8007549A0E516B432067548107549B6E51694
:1023C800B437067548107549CCE516B43C0675480F
:1023D800107549E2E516B441067548107549F8E5E7
:1023E80016B4460675481175490EE516B44B0675C0
:1023F8004811754924E516B4500675481175493ACF
:10240800E516B45506754811754950E516B45A06CF
:10241800754811754966E516B45F06754811754922
:102428007CE516B46416EF640F6003BF0D087548A9
:10243800117549A88006754811754992E516B46961
:10244800067548117549E0E516B46E0675481275AB
:102458004918E516B47306754812754950E516B45F
:102468007806754812754988E516B47D06754812D0
:102478007549C0E516B482067548127549F8E5161F
:10248800B48706754813754930E516B48C06754847
:1024980013754968E516B491067548137549A0E5A2
:1024A80016B496067548137549D8E516B49B067593
:1024B8004814754910E51664A0705F75481475498D
:1024C80048805775480F7549A2804F75480F754960
:1024D800B88047E516B41E06754810754974E516A8
:1024E8006428703675481075498A802E75480F75AE
:1024F80049D8802675480F7549F9801E75481075AA
:10250800490F8016E516B45006754810754932E52E
:0D25180016B46406754810754953025B4DFA
:103F0300E5296003024001203203024001E54B45ED
:103F13004A7016E549254CF582E43548F583E49368
:103F23002549F54BE43548F54A3029080547E54767
:103F330070020546E54B454A7003024001854B82FA
:103F4300854A83E493047003023FF314B40F0040E3
:103F530003023FFB903F5EF8282873023F8B023F2A
:103F630096023F96023F96023F96023FA3023FA36B
:103F7300023FA3023FA3023FA3023FFB023FFB0218
:103F83003FB9023FB9023FCEAF4BAE4A122A5C742F
:103F930006802CAF4BAE4A1252D68F2B7403800B84
:103FA300AF4BAE4A1249638F2B7404254BF54BE498
:103FB300354AF54A8034AF4BAE4A124A1F74032583
:103FC3004BF54BE4354AF54A023F37AF4BAE4A1245
:103FD3002C8E8F2BE54B454A7003023F3774052522
:103FE3004BF54BE4354AF54AAF2B125CEC023F37F5
:0E3FF300E4F54AF54B023F37124581023F3795
:01400100229C
:105CEC00EFF4600EEF547FF54CEF30E705E4F5462A
:035CFC00F5472247
:042A5C008E2C8F2D00
:102A6000E4FF125D5F852D82852C83740193F553FD
:102A7000740293F552740393F554740493F54F74F0
:102A80000593B40A04D2438002C243E553B4F10D66
:102A9000E552B4F10878CBE6F55304F552E553B4AA
:102AA000F20DE552B4F20878D1E6F55304F552E59B
:102AB00054D394F05003022C63E554B4F1038545DC
:102AC00054E554B4F20EE545C313F554C3940850CD
:102AD00003755408E55464F36003022C63E516B4EF
:102AE000A019EFC394975010C374A39FF554D394C7
:102AF0001440087554148003E4F554E516B49B198A
:102B0000EFC394925010C3749E9FF554D394144015
:102B1000087554148003E4F554E516B49619EFC310
:102B2000948D5010C374999FF554D3941440087534
:102B300054148003E4F554E516B49119EFC3948856
:102B40005010C374949FF554D394144008755414D2
:102B50008003E4F554E516B48C19EFC39483501048
:102B6000C3748F9FF554D394144008755414800394
:102B7000E4F554E516B48719EFC3947F5010C3747D
:102B80008B9FF554D3941440087554148003E4F5D6
:102B900054E516B48219EFC3947A5010C374869F1B
:102BA000F554D3941440087554148003E4F554E5A7
:102BB00016B47D19EFC394755010C374819FF554FA
:102BC000D3941440087554148003E4F554E516B406
:102BD0007819EFC394705010C3747C9FF554D3944C
:102BE0001440087554148003E4F554E516B47319C1
:102BF000EFC3946B5010C374779FF554D394144073
:102C0000087554148003E4F554E516B46E19EFC347
:102C100094665010C374729FF554D3941440087591
:102C200054148003E4F554E516B46919EFC39464B1
:102C30005010C374709FF554D39414400875541405
:102C40008003E4F554E516B46419EFC394625010A0
:102C5000C3746E9FF554D3941440087554148003C4
:102C6000E4F554E54FD394F04023E54FB4F10A85E1
:102C7000444FE54F70037554F0E54FB4F203754FC0
:0D2C800023E54FB4F407C3741E9554F54FBF
:012C8D002224
:0452D6008E2C8F2D5E
:1052DA008F828E83740193F52EE4F52FFF125D5FA2
:1052EA008F307F01125D5F852D82852C83E49324A4
:1052FA00FE60131460191460272403702CE530D360
:10530A00952E40258020E530C3952E501C8017EF3E
:10531A00D3952E4003752F0130430E30440B80067F
:10532A00EFC3952E5003752F01E52F600B852D8253
:0A533A00852C83740293FF227FFF8D
:015344002246
:044963008E2C8F2DDA
:104967008F828E83740293FE7401937C002400FF70
:10497700EC3EFEE493FDB40908E4F546F5477FFFF6
:1049870022ED6405600C852D82852C83E4936406F3
:104997007053D3EF94F0EE94004043EF64F14E7000
:1049A7000778C6E6FE08E6FFEF64F24E700778C8A0
:1049B700E6FE08E6FFEF64F34E700778CCE6FE08E4
:1049C700E6FFEF64F44E700778CEE6FE08E6FFEFE9
:1049D70064F54E701078D2E6FE08E6FF80077C008B
:1049E7007D3C1234C4852D82852C83E493FD6405B8
:1049F7006004EDB4070BD3E5479FE5469E4016805C
:104A070009C3E5479FE5469E500B852D82852C837C
:074A1700740393FF227FFFEF
:014A1E002275
:044A1F008E2C8F2D1D
:104A2300E4F52EFF125D5F8F2F7F01125D5F852DF1
:104A330082852C83740293FE605374019324FE6079
:104A43001224FD601F14602E2405703CEFC39E509A
:104A5300508046852D82852C83740293FEEFD39E6E
:104A6300403F803A852D82852C83740293FFE52F86
:104A7300C39F502D8023852D82852C83740293FF41
:104A8300E52FD39F401B8016E4F52E8014852D82DD
:104A9300852C83740193B40105752E018003752E53
:104AA30002E52EB40111852D82852C83E493B40C89
:104AB30004D2318002D230E52EB40210852D8285D6
:0C4AC3002C83E493B40C03C23122C230F7
:014ACF0022C4
:042C8E008E2C8F2DCC
:102C92007F01125D5F8F2EE4F52F7530FF852D8247
:102CA200852C83049324FE601D146070147003024B
:102CB2002E9724036003022EA01251F2D23FD200BB
:102CC2007E5A7F728050E569643B6003022EA0E564
:102CD2006A6003022EA0E56B6003022EA075693BB9
:102CE20078D4E6FA08E6FB7C007D3CFFAE021234A3
:102CF200D68D6A7C007D3CAF03AE021234D68F6B58
:102D0200E50964097003022EA0E509640670030256
:102D12002EA07E5A7F76125D22022EA0852D8285FC
:102D22002C83740293FB6003022DAE740393FA703A
:102D32001BE5514550600FAE50AF517C007D3C12F7
:102D420034D68F458003754510E4F544EAB4012872
:102D5200AE50AF517C007D781234D68F45E545C325
:102D620094085003754508E545D3940C4003754516
:102D72000CC3741E9545F544852D82852C837403FE
:102D820093B40228AE50AF517C007D3C1234D68FF2
:102D920045E545C3940C500375450CE545D39414A1
:102DA2004003754514C3741E9545F544EB640270E7
:102DB20035852D82852C8374039378D6F6AE50AF79
:102DC200517C007D3C1234D6EF240AF545D3941889
:102DD2004003754518E545C3940C500375450CC373
:102DE200741E9545F544852D82852C837402936467
:102DF200036003022EA074039378C2F6852D8285A8
:102E02002C83740493FB64017056E6FFB45522E5EB
:102E12002ED394484005087602800478C37604785D
:102E2200D7760308760278C1760A78C4761E0876C9
:102E32001EEF6462702A78C3760178D7760108762D
:102E42000178C17608AE50AF51FC7D3C1234D6EF0A
:102E5200240378C4F6D394144002761478C5761EFF
:102E6200EB6402702B78C2E6B45A25E52ED3944E59
:102E72004008087602087614800778C3760308763D
:102E82001E78D7760308760278C1760C78C5761E4E
:102E92001250898009303B06752F01753002E52FEB
:072EA2006003AF30227FFF47
:012EA9002206
:105089007F01125D5F302908054EE54E7002054D1E
:10509900C3E54E941EE54D94004063E4F54DF54E8D
:1050A90078C3E678D626F678C2E6FE78D6E6D39EA9
:1050B9004002A60678D6E6FEEFD39E4006E54508EF
:1050C90096F545EFC39E500778D8E62545F545780E
:1050D900C4E6FEE545D39E40028E4578C1E6FEE56D
:1050E90045C39E50028E4578C5E6FED395454007D7
:0E50F900EE9545F5448003E4F54478D6A6070D
:015107002285
:105C9A00740112343B1233F5C3943C500122E412CE
:065CAA0034901259C222E1
:1057AF0074FF12343B1233F5F47037743B1234909C
:1057BF0090000174FF12345D90000112340EF470EA
:1057CF0021900001743B1234A290000274FF123436
:1057DF005D90000212340EB4FF089000027417128D
:0357EF0034A222BF
:1059C200900001740112345D90000112340EC394F0
:1059D2003C500122900001E41234A29000027401B2
:1059E20012345D90000212340EB41807900002E4E3
:0459F2001234A222A7
:105A2800E4FF125D5FE5527003F5572230291F30FD
:105A38002F0AEFC395534002800AC22FEFC3955235
:0E5A48004006D22FE4F55722855457854F565D
:015A5600222D
:104E6C0020390FC390004DE094E890004CE094037F
:104E7C005007C287C285C28622E5577008C287C216
:104E8C0035F5558057E557B4F014D287D235E4F593
:104E9C00553029480551E55170420550803E302966
:104EAC003B055530351CE555C395574009C235E4D3
:104EBC00F555C2878026D2870551E551701E0550E5
:104ECC00801AE555C395564011D235E4F555D28775
:104EDC000551E551700605508002C287303104D26D
:0E4EEC00858002C285303003D28622C2862223
:10308F0000AA0104017C01CC01EA0208005A00A049
:10309F0000F0012C014A0186006E00C80140017248
:1030AF0001AE01CC00280046007800B400D200F039
:1030BF00012C01CC022602C602C602C600A000B433
:1030CF00010401400190019000A000B401040140EF
:1030DF000190019000A000B4010401400190019003
:1030EF00015401CC024402BC02BC02BC0348034899
:1030FF00034803480348034803FC03FC03FC03FC99
:10310F0003FC03FC0438043804380438043804384A
:10311F000168016801680168016801680348034894
:10312F00034803480348034802D002D002D002D01C
:10313F0002D002D001A401A401A401A401A401A4FE
:10314F000708070807080708070807080E100E10DA
:10315F000E100E100E100E10505152545454404079
:10316F00404040404747484A4A4A57575757575792
:10317F004B4B4B4B4B4B3B3C3C3D3D3D3B3C3C3D24
:10318F003D3D3B3C3C3D3D3D48484848484800B4E8
:10319F0000C800F001180140016802D002D002D02F
:1031AF0002D002D002D00078007800780078007842
:1031BF0000780F0F0F0F0F0F0A0A0A0A0A0A0F0FD4
:1031CF000F0F0F0F0F0F0F0F0F0F0F0F0F0F0F0F00
:1031DF001414141414140F0F0F0F0F0F14141414BE
:1031EF001414141414141414141414141414141490
:1031FF00141414140F0F0F0F0F0F0E0E0E0E0E0EC2
:10320F001212121212120505050505050505050511
:10321F0005050505050505052323232323230A0A91
:10322F000A0A0A0A0F3C2D2323230A0A0A0A0A0A4A
:0C323F00505050505050505050505050C3
:1027FC00001F00210022002400260028002A002CA3
